:020000040800F2
:1000000000000220F53C0008713000087330000841
:1000100075300008773000087930000800000000D3
:10002000000000000000000000000000B12F0008E8
:100030007B30000800000000E12F00084530000878
:10004000453D0008453D0008453D0008453D000888
:10005000453D0008453D0008453D0008453D000878
:10006000453D0008453D0008453D0008453D000868
:10007000453D0008AD300008453D0008BD30000892
:100080008D3000089D300008453D0008453D0008C2
:10009000453D0008453D0008453D0008453D000838
:1000A000453D0008453D0008453D0008453D000828
:1000B000453D0008453D0008453D0008453D000818
:1000C000453D0008453D0008453D0008453D000808
:1000D000453D0008453D0008CD300008453D00087D
:1000E000453D0008453D0008453D0008453D0008E8
:1000F000453D0008453D0008453D0008453D0008D8
:10010000453D0008453D00087D300008453D00089C
:10011000DD300008453D0008453D0008453D00082C
:10012000453D0008453D0008453D0008453D0008A7
:10013000453D0008453D0008453D0008453D000897
:10014000453D0008453D0008453D0008453D000887
:10015000453D0008453D0008453D0008453D000877
:10016000453D0008453D0008453D0008453D000867
:10017000453D0008453D0008453D000800000000E1
:08018000453D0008453D000863
:1001900010B5054C237833B9044B13B10448AFF3C1
:1001A00000800123237010BDE40100200000000046
:1001B0008880000808B5034B1BB103490348AFF31F
:1001C000008008BD00000000E801002088800008D1
:1001D00010F8012B11F8013B012A28BF9A42F7D0F1
:1001E000D01A7047034613F8012B002AFBD1181AC6
:1001F000013870470000000000000000000000000F
:1002000001F0FF01102A2BDB10F0070F08D010F8C7
:10021000013B013A8B422DD010F0070F42B3F6D1CB
:10022000F0B441EA012141EA014122F007047FF0E4
:1002300000070023F0E80256083C85EA010586EA3B
:10024000010685FA47F5A3FA87F586FA47F6A5FA77
:1002500087F68EB9EED1F0BC01F0FF0102F0070283
:1002600032B110F8013B013A83EA010313B1F8D12E
:100270000020704701387047002D06BF354603380F
:10028000073815F0010F07D1013015F4807F02BF48
:10029000013015F4C03F0130F0BC0138704700BF99
:1002A00081F0004102E000BF83F0004330B54FEA27
:1002B00041044FEA430594EA050F08BF90EA020F94
:1002C0001FBF54EA000C55EA020C7FEA645C7FEA27
:1002D000655C00F0E2804FEA5454D4EB5555B8BF4A
:1002E0006D420CDD2C4480EA020281EA030382EABB
:1002F000000083EA010180EA020281EA0303362D4D
:1003000088BF30BD11F0004F4FEA01314FF4801C1F
:100310004CEA113102D0404261EB410113F0004F31
:100320004FEA03334CEA133302D0524263EB4303E8
:1003300094EA050F00F0A780A4F10104D5F1200E86
:100340000DDB02FA0EFC22FA05F2801841F10001E1
:1003500003FA0EF2801843FA05F359410EE0A5F1B5
:1003600020050EF1200E012A03FA0EFC28BF4CF0E6
:10037000020C43FA05F3C01851EBE37101F000459C
:1003800007D54FF0000EDCF1000C7EEB00006EEBA9
:100390000101B1F5801F1BD3B1F5001F0CD3490833
:1003A0005FEA30004FEA3C0C04F101044FEA44528A
:1003B00012F5800F80F09A80BCF1004F08BF5FEA11
:1003C000500C50F1000041EB045141EA050130BDF1
:1003D0005FEA4C0C404141EB0101013C28BFB1F503
:1003E000801FE9D291F0000F04BF01460020B1FA4E
:1003F00081F308BF2033A3F10B03B3F120020CDA21
:100400000C3208DD02F1140CC2F10C0201FA0CF0FE
:1004100021FA02F10CE002F11402D8BFC2F1200C63
:1004200001FA02F120FA0CFCDCBF41EA0C01904019
:10043000E41AA2BF01EB0451294330BD6FEA040462
:100440001F3C1CDA0C340EDC04F11404C4F120024D
:1004500020FA04F001FA02F340EA030021FA04F35F
:1004600045EA030130BDC4F10C04C4F1200220FAB6
:1004700002F001FA04F340EA0300294630BD21FAF4
:1004800004F0294630BD94F0000F83F4801306BFBA
:1004900081F480110134013D4EE77FEA645C18BFAE
:1004A0007FEA655C29D094EA050F08BF90EA020F45
:1004B00005D054EA000C04BF1946104630BD91EA3D
:1004C000030F1EBF0021002030BD5FEA545C05D140
:1004D0004000494128BF41F0004130BD14F580047F
:1004E0003CBF01F5801130BD01F0004545F0FE41F3
:1004F00041F470014FF0000030BD7FEA645C1ABF28
:10050000194610467FEA655C1CBF0B46024650EA5E
:10051000013406BF52EA033591EA030F41F400218A
:1005200030BD00BF90F0000F04BF0021704730B510
:100530004FF4806404F132044FF000054FF00001E5
:1005400050E700BF90F0000F04BF0021704730B5A6
:100550004FF4806404F1320410F0004548BF40427B
:100560004FF000013EE700BF42004FEAE2014FEAD0
:1005700031014FEA02701FBF12F07F4393F07F4FAB
:1005800081F06051704732F07F4208BF704793F0AE
:100590007F4F04BF41F40021704730B54FF46074C1
:1005A00001F0004521F000411CE700BF50EA0102C4
:1005B00008BF704730B54FF000050AE050EA01026D
:1005C00008BF704730B511F0004502D5404261EBDD
:1005D00041014FF4806404F132045FEA915C3FF41E
:1005E000D8AE4FF003025FEADC0C18BF03325FEABB
:1005F000DC0C18BF033202EBDC02C2F1200300FA6C
:1006000003FC20FA02F001FA03FE40EA0E0021FA90
:1006100002F11444BDE600BF70B54FF0FF0C4CF47E
:10062000E06C1CEA11541DBF1CEA135594EA0C0F30
:1006300095EA0C0F00F0DEF82C4481EA030621EA6B
:100640004C5123EA4C5350EA013518BF52EA0335A6
:1006500041F4801143F4801338D0A0FB02CE4FF058
:100660000005E1FB02E506F00042E0FB03E54FF088
:100670000006E1FB03569CF0000F18BF4EF0010E80
:10068000A4F1FF04B6F5007F64F5407404D25FEA7C
:100690004E0E6D4146EB060642EAC62141EA55512F
:1006A0004FEAC52040EA5E504FEACE2EB4F1FD0C71
:1006B00088BFBCF5E06F1ED8BEF1004F08BF5FEAEF
:1006C000500E50F1000041EB045170BD06F00046A1
:1006D00046EA010140EA020081EA0301B4EB5C044E
:1006E000C2BFD4EB0C0541EA045170BD41F4801146
:1006F0004FF0000E013C00F3AB8014F1360FDEBF6B
:10070000002001F0004170BDC4F10004203C35DA46
:100710000C341BDC04F11404C4F1200500FA05F3C9
:1007200020FA04F001FA05F240EA020001F000426A
:1007300021F0004110EBD37021FA04F642EB0601E0
:100740005EEA430E08BF20EAD37070BDC4F10C040A
:10075000C4F1200500FA04F320FA05F001FA04F2CE
:1007600040EA020001F0004110EBD37041F10001BA
:100770005EEA430E08BF20EAD37070BDC4F12005C5
:1007800000FA05F24EEA020E20FA04F301FA05F22D
:1007900043EA020321FA04F001F0004121FA04F2D5
:1007A00020EA020000EBD3705EEA430E08BF20EAA5
:1007B000D37070BD94F0000F0FD101F000464000DF
:1007C00041EB010111F4801F08BF013CF7D041EA61
:1007D000060195F0000F18BF704703F00046520065
:1007E00043EB030313F4801F08BF013DF7D043EA36
:1007F0000603704794EA0C0F0CEA135518BF95EAEC
:100800000C0F0CD050EA410618BF52EA4306D1D172
:1008100081EA030101F000414FF0000070BD50EA91
:10082000410606BF1046194652EA430619D094EA1B
:100830000C0F02D150EA013613D195EA0C0F05D105
:1008400052EA03361CBF104619460AD181EA030159
:1008500001F0004141F0FE4141F470014FF0000011
:1008600070BD41F0FE4141F4780170BD70B54FF0AC
:10087000FF0C4CF4E06C1CEA11541DBF1CEA13552C
:1008800094EA0C0F95EA0C0F00F0A7F8A4EB05040E
:1008900081EA030E52EA03354FEA013100F0888005
:1008A0004FEA03334FF0805545EA131343EA1263CE
:1008B0004FEA022245EA111545EA10654FEA002683
:1008C0000EF000419D4208BF964244F1FD0404F53C
:1008D000407402D25B084FEA3202B61A65EB030598
:1008E0005B084FEA32024FF480104FF4002CB6EB55
:1008F000020E75EB030E22BFB61A754640EA0C00D5
:100900005B084FEA3202B6EB020E75EB030E22BF14
:10091000B61A754640EA5C005B084FEA3202B6EB55
:10092000020E75EB030E22BFB61A754640EA9C0014
:100930005B084FEA3202B6EB020E75EB030E22BFE4
:10094000B61A754640EADC0055EA060E18D04FEAA2
:10095000051545EA16754FEA06164FEAC30343EA42
:1009600052734FEAC2025FEA1C1CC0D111F4801F0F
:100970000BD141EA00014FF000004FF0004CB6E708
:1009800011F4801F04BF01430020B4F1FD0C88BFA7
:10099000BCF5E06F3FF6AFAEB5EB030C04BFB6EBB2
:1009A000020C5FEA500C50F1000041EB045170BDA5
:1009B0000EF0004E4EEA113114EB5C04C2BFD4EBD2
:1009C0000C0541EA045170BD41F480114FF0000E56
:1009D000013C90E645EA060E8DE60CEA135594EAD2
:1009E0000C0F08BF95EA0C0F3FF43BAF94EA0C0FD5
:1009F0000AD150EA01347FF434AF95EA0C0F7FF44A
:100A000025AF104619462CE795EA0C0F06D152EA9D
:100A100003353FF4FDAE1046194622E750EA410681
:100A200018BF52EA43067FF4C5AE50EA41047FF492
:100A30000DAF52EA43057FF4EBAE12E74FF0FF3CF7
:100A400006E000BF4FF0010C02E000BF4FF0010CC8
:100A50004DF804CD4FEA410C7FEA6C5C4FEA430C41
:100A600018BF7FEA6C5C1BD001B050EA410C0CBF90
:100A700052EA430C91EA030F02BF90EA020F0020F2
:100A8000704710F1000F91EA030F58BF994208BF59
:100A900090422CBFD8176FEAE37040F00100704716
:100AA0004FEA410C7FEA6C5C02D150EA013C07D16D
:100AB0004FEA430C7FEA6C5CD6D152EA033CD3D0B8
:100AC0005DF8040B704700BF8446104662468C46B2
:100AD0001946634600E000BF01B5FFF7B7FF0028E5
:100AE00048BF10F1000F01BD4DF808EDFFF7F4FF0E
:100AF0000CBF012000205DF808FB00BF4DF808ED99
:100B0000FFF7EAFF34BF012000205DF808FB00BFBB
:100B10004DF808EDFFF7E0FF94BF012000205DF8DD
:100B200008FB00BF4DF808EDFFF7CEFF94BF012092
:100B300000205DF808FB00BF4DF808EDFFF7C4FF8B
:100B400034BF012000205DF808FB00BF4FEA410CD4
:100B50007FEA6C5C02D150EA013C0AD14FEA430CB7
:100B60007FEA6C5C02D152EA033C02D14FF00000F4
:100B700070474FF0010070474FEA410212F5001232
:100B800015D211D56FF47873B3EB625212D94FEAD4
:100B9000C12343F0004343EA505311F0004F23FABE
:100BA00002F018BF404270474FF00000704750EA13
:100BB000013005D111F0004008BF6FF000407047D0
:100BC0004FF00000704700BF4FEA4102B2F1E0432E
:100BD00024BFB3F5001CDCF1FE5C0DD901F0004C24
:100BE0004FEAC0024CEA5070B2F1004F40EB830074
:100BF00008BF20F00100704711F0804F21D113F1A0
:100C00003872BCBF01F00040704741F480114FEAD8
:100C10005252C2F11802C2F1200C10FA0CF320FA61
:100C200002F018BF40F001004FEAC1234FEAD3237E
:100C300003FA0CFC40EA0C0023FA02F34FEA4303E8
:100C4000CCE77FEA625307D150EA01331EBF4FF071
:100C5000FE4040F44000704701F0004040F0FE408C
:100C600040F40000704700BF53B94AB9002908BFDB
:100C700000281CBF4FF0FF314FF0FF3000F074B977
:100C8000ADF1080C6DE904CE00F006F8DDF804E0E3
:100C9000DDE9022304B070472DE9F047089D0446C2
:100CA0008E46002B4DD18A42944669D9B2FA82F21F
:100CB00052B101FA02F3C2F1200120FA01F10CFA5B
:100CC00002FC41EA030E94404FEA1C48210CBEFB93
:100CD000F8F61FFA8CF708FB16E341EA034306FB1C
:100CE00007F199420AD91CEB030306F1FF3080F0AB
:100CF0001F81994240F21C81023E63445B1AA4B2F8
:100D0000B3FBF8F008FB103344EA034400FB07F799
:100D1000A7420AD91CEB040400F1FF3380F00A81DA
:100D2000A74240F207816444023840EA0640E41BCF
:100D300000261DB1D4400023C5E900433146BDE87B
:100D4000F0878B4209D9002D00F0EF800026C5E91D
:100D5000000130463146BDE8F087B3FA83F6002E35
:100D60004AD18B4202D3824200F2F980841A61EBAD
:100D7000030301209E46002DE0D0C5E9004EDDE7CB
:100D800002B9FFDEB2FA82F2002A40F09280A1EBB3
:100D90000C014FEA1C471FFA8CFE0126200CB1FB08
:100DA000F7F307FB131140EA01410EFB03F0884201
:100DB00008D91CEB010103F1FF3802D2884200F28E
:100DC000CB804346091AA4B2B1FBF7F007FB101120
:100DD00044EA01440EFB00FEA64508D91CEB0404BE
:100DE00000F1FF3102D2A64500F2BB800846A4EB19
:100DF0000E0440EA03409CE7C6F12007B34022FA04
:100E000007FC4CEA030C20FA07F401FA06F31C4332
:100E1000F9404FEA1C4900FA06F3B1FBF9F8200C3F
:100E20001FFA8CFE09FB181140EA014108FB0EF085
:100E3000884202FA06F20BD91CEB010108F1FF3AD5
:100E400080F08880884240F28580A8F102086144E1
:100E5000091AA4B2B1FBF9F009FB101144EA0141EF
:100E600000FB0EFE8E4508D91CEB010100F1FF349A
:100E70006CD28E456AD90238614440EA0840A0FB32
:100E80000294A1EB0E01A142C846A64656D353D008
:100E90005DB1B3EB080261EB0E0101FA07F722FA2C
:100EA00006F3F1401F43C5E9007100263146BDE855
:100EB000F087C2F12003D8400CFA02FC21FA03F3B8
:100EC000914001434FEA1C471FFA8CFEB3FBF7F039
:100ED00007FB10360B0C43EA064300FB0EF69E425E
:100EE00004FA02F408D91CEB030300F1FF382FD2F7
:100EF0009E422DD9023863449B1B89B2B3FBF7F69F
:100F000007FB163341EA034106FB0EF38B4208D977
:100F10001CEB010106F1FF3816D28B4214D9023EB8
:100F20006144C91A46EA004638E72E46284605E7D6
:100F30000646E3E61846F8E64B45A9D2B9EB0208A7
:100F400064EB0C0E0138A3E74646EAE7204694E737
:100F50004046D1E7D0467BE7023B614432E730466A
:100F600009E76444023842E7704700BF002800F0F8
:100F7000CC8070B5044690F83D30002B77D0242308
:100F800084F83D302268136823F00103136022685F
:100F9000136843F4004313602268136823F400438A
:100FA000136001F00BFB62685A4B9A4264D85A4BAB
:100FB00098428CBF00230123002B40F0A8805749A2
:100FC000A1FB00318B0C25686A6822F03F0242EADF
:100FD00091426A6021680A6A22F03F0266684D4DBC
:100FE000AE424FD8013313430B622168CA6922F421
:100FF0004F4222F0FF026668464B9E424CD8431E89
:101000007600B3FBF6F3013340F6FC70034278D070
:10101000C3F30B031343CB6121680B6823F0C003B8
:10102000E269206A024313430B6021688B6823F452
:10103000034323F0FF032269E068024313438B60FC
:101040002168CB6823F0FF036269A0690243134360
:10105000CB602268136843F0010313600020206412
:10106000202384F83D30206384F83E0070BD80F872
:101070003C3002F07BF982E7294B98428CBF002379
:10108000012399E74FF4967505FB03F3254DA5FB66
:1010900003539B090133A6E7A368BBB9451E06EBC2
:1010A000460CB5FBFCF50135C5F30B05B5FA85F526
:1010B0006D0945BBC3B9013806EB4603B0FBF3F33A
:1010C0000133C3F30B0343F40043A3E7451E06EBD0
:1010D000860C0CEB8C0CB5FBFCF50135C5F30B0550
:1010E000B5FA85F56D09E4E7013806EB860303EBF5
:1010F0008303B0FBF3F30133C3F30B0343F4404327
:1011000088E7042386E7012384E701207047012054
:10111000ACE700BFA08601007F841E0083DE1B4376
:10112000FF083D00D34D621030B4036A23F0010381
:101130000362036A4268846924F073040D682C43D7
:1011400023F0020C8B6843EA0C03104DA84203D035
:1011500005F58065A84205D123F00803CD682B432F
:1011600023F00403094DA84203D005F58065A84289
:1011700005D122F440724D692A438D692A434260A9
:1011800084614A684263036230BC704700000140DA
:1011900030B4036A23F480730362036A4268C4694B
:1011A00024F0730C0C6844EA0C0523F400738C687B
:1011B00043EA0423114CA04203D004F58064A0420A
:1011C00006D123F40063CC6843EA042323F480634C
:1011D0000A4CA04203D004F58064A04207D122F457
:1011E00040524C6942EA04128C6942EA041242609D
:1011F000C5614A68C263036230BC704700000140A9
:1012000030B4036A23F480530362036A4468C269FA
:1012100022F4E6420D6842EA052223F400538D6869
:1012200043EA0533094DA84203D005F58065A8427D
:1012300004D124F480444D6944EA85144460C261B9
:101240004A680264036230BC704700BF000001407E
:101250007047022380F83D300268936803F007036B
:10126000062B03D0136843F001031360012380F8B9
:101270003D30002070470268D36843F00103D3601B
:101280000268936803F00703062B03D0136843F04A
:101290000103136000207047704770477047704724
:1012A00010B5044603681A6912F0020F11D0DA680B
:1012B00012F0020F0DD06FF002021A6101230377C2
:1012C00003689B6913F0030F70D0FFF7E6FF00235C
:1012D000237723681A6912F0040F12D0DA6812F02B
:1012E000040F0ED06FF004021A61022323772368E3
:1012F0009B6913F4407F5FD02046FFF7CEFF0023A9
:10130000237723681A6912F0080F12D0DA6812F0F6
:10131000080F0ED06FF008021A61042323772368A8
:10132000DB6913F0030F4ED02046FFF7B6FF002312
:10133000237723681A6912F0100F12D0DA6812F0BE
:10134000100F0ED06FF010021A6108232377236864
:10135000DB6913F4407F3DD02046FFF79EFF00235A
:10136000237723681A6912F0010F03D0DA6812F0AC
:10137000010F36D123681A6912F0800F03D0DA68A2
:1013800012F0800F34D123681A6912F0400F03D095
:10139000DA6812F0400F32D123681A6912F0200F78
:1013A00003D0DA6812F0200F30D110BDFFF774FFC0
:1013B0002046FFF773FF8AE72046FFF76DFF2046C0
:1013C000FFF76CFF9BE72046FFF766FF2046FFF71D
:1013D00065FFACE72046FFF75FFF2046FFF75EFFA3
:1013E000BDE76FF001021A61204602F065FEC1E719
:1013F0006FF080021A61204600F062FAC3E76FF0D6
:1014000040021A612046FFF74AFFC5E76FF020024D
:101410001A61204600F053FAC7E700000368304A1B
:10142000904212D0B0F1804F0FD0A2F57C42904292
:101430000BD002F58062904207D002F580629042A4
:1014400003D002F57842904203D123F070034A683A
:101450001343234A90422AD0B0F1804F27D0A2F5FF
:101460007C42904223D002F5806290421FD002F568
:10147000806290421BD002F57842904217D002F56C
:101480007052904213D002F5806290420FD002F564
:10149000806290420BD0A2F59832904207D002F5BC
:1014A0008062904203D002F58062904203D123F41F
:1014B0004073CA68134323F080034A6913430360EF
:1014C0008B68C3620B688362054B984203D003F5B7
:1014D0008063984201D10B69036301234361704724
:1014E00000000140B0B110B5044690F83D3063B142
:1014F000022384F83D30214651F8040BFFF78EFF9C
:10150000012384F83D30002010BD80F83C30FFF707
:101510009FFEEDE701207047B0B110B5044690F88A
:101520003D3063B1022384F83D30214651F8040B6D
:10153000FFF774FF012384F83D30002010BD80F8D0
:101540003C3002F0FFF8EDE70120704700284CD056
:10155000F8B50C46054690F83D30002B40D00223EC
:1015600085F83D302A68936823F4804323F007030D
:101570009360294651F8040BFFF750FF29688A68E9
:101580008B690E6A2068104323F4407C2CF0030C16
:10159000A268A36942EA032343EA0C0323F47C43D1
:1015A00023F0FC03E269E76847EA022C4CEA030CEB
:1015B000226A1303226943EA021343EA0C0326F06A
:1015C000AA066268646942EA0412324388602968A4
:1015D0008B612B681A62012385F83D300020F8BD2D
:1015E00080F83C3001F0CAFFB9E7012070470000E5
:1015F00030B4036A23F010030362036A446882690B
:1016000022F4E6420D6842EA052223F020038D68A9
:1016100043EA0513114DA84203D005F58065A842A1
:1016200006D123F08003CD6843EA051323F040037D
:101630000A4DA84203D005F58065A84207D124F4DD
:1016400040644D6944EA85048D6944EA8504446038
:1016500082614A688263036230BC704700000140C7
:1016600038B590F83C30012B66D004460D46012376
:1016700080F83C30022380F83D300C2A1AD8DFE88D
:1016800002F00719191920191919341919194700E5
:101690000068FFF749FD2268936943F008039361EE
:1016A0002268936923F0040393612268936929698E
:1016B0000B439361012384F83D30002084F83C0003
:1016C00038BD0068FFF794FF2268936943F4006314
:1016D00093612268936923F480639361226893691C
:1016E000296943EA01239361E4E70068FFF750FDAD
:1016F0002268D36943F00803D3612268D36923F0D9
:101700000403D3612268D36929690B43D361D1E70C
:101710000068FFF775FD2268D36943F40063D36165
:101720002268D36923F48063D3612268D36929696D
:1017300043EA0123D361BDE70220C1E701F01F01A5
:10174000012303FA01FC036A23EA0C030362036A20
:1017500002FA01F10B4303627047000010B5044622
:1017600001220068FFF7EAFF23680B4A934203D087
:1017700002F58062934203D15A6C42F400425A64EB
:101780002268936803F00703062B03D0136843F025
:1017900001031360002010BD0000014010B5044695
:1017A00061B1042916D0012200210068FFF7C6FFAD
:1017B000012204212068FFF7C1FF04E0012200217B
:1017C0000068FFF7BBFF2268136843F00103136052
:1017D000002010BD012204210068FFF7AFFFF2E7EF
:1017E00090F83C30012B3DD010B4012380F83C3000
:1017F000022380F83D3003685A689C6822F0700C20
:101800000A6842EA0C025A600368174A93421AD0E7
:10181000B3F1804F17D0A2F57C42934213D002F56A
:10182000806293420FD002F5806293420BD002F5A2
:101830007842934207D002F57052934203D0A2F54A
:101840009432934204D124F080044A6814439C608B
:10185000012380F83D30002380F83C3018465DF8C5
:10186000044B7047022070470000014090F83C3064
:10187000012B22D0012380F83C30CB6823F4407345
:101880008A68134323F480634A68134323F4006394
:101890000A68134323F480530A69134323F4005363
:1018A0004A69134323F48043CA69134302685364AB
:1018B000002380F83C30184670470220704770477C
:1018C00070470268D36823F0C003D360202380F8F8
:1018D000393070470268D36823F49073D36002688C
:1018E000536923F001035361202380F83A30704795
:1018F00090F83930DBB2212B01D002207047836889
:10190000B3F5805F17D0036A5A1C02621A78036825
:101910005A60C38C9BB2013B9BB2C3844BB9026833
:10192000D36823F08003D3600268D36843F0400398
:10193000D36000207047036A1B880268C3F3080362
:10194000536003691BB9036A02330362E1E7036A68
:1019500001330362DDE7000038B50446026813690D
:1019600023F44053C1680B43136183680269134336
:1019700042691343C2691A430168CB6823F41643D2
:1019800023F00C031343CB600268536923F44073C4
:1019900081690B435361C369B3F5004F35D00368C8
:1019A000604A934200F0918002F58062934200F019
:1019B0008C8000F003FE0021031849411B1841F1FF
:1019C0000001C90041EA5371DB00181863684FEA4F
:1019D00083024FEA937341F10001FFF745F9524D3D
:1019E000A5FB00325109642303FB11031B013233B1
:1019F000A5FB03235B0903F0F00202EB011203F0E5
:101A00000F03216813448B608AE00368454A9342C0
:101A10002FD002F5806293422BD000F0CFFD00233F
:101A2000021843EB0301121841F10001C90041EA19
:101A30005271D200101841F10001626892185B41A6
:101A4000FFF712F9384DA5FB00325109642303FB5F
:101A50001103DB003233A5FB03235B095A0002F4B8
:101A6000F87202EB011203F00703216813448B6044
:101A700056E000F0B3FD0023021843EB03011218F7
:101A800041F10001C90041EA5271D200101841F140
:101A90000001626892185B41FFF7E6F8224DA5FB52
:101AA00000325109642303FB1103DB003233A5FB31
:101AB00003235B095A0002F4F87202EB011203F0EF
:101AC0000703216813448B602AE000F087FD0021A2
:101AD000031849411B1841F10001C90041EA537143
:101AE000DB00181863684FEA83024FEA937341F1F1
:101AF0000001FFF7B9F80C4DA5FB00325109642332
:101B000003FB11031B013233A5FB03235B0903F025
:101B1000F00202EB011203F00F03216813448B6003
:101B200038BD00BF001001401F85EB5158B310B500
:101B3000044690F839300BB3242384F839302268F6
:101B4000D36823F40053D3602046FFF705FF2268D3
:101B5000136923F4904313612268536923F02A0325
:101B600053612268D36843F40053D3600020E063DC
:101B7000202384F8393084F83A3010BD80F83830AA
:101B800001F01EFFD8E701207047000038B590F83B
:101B90003930DBB2202B31D10446002930D0002A65
:101BA00030D090F83830012B2ED0012380F8383017
:101BB00001628284C2840025C563212380F8393004
:101BC000036B1248D863236B11481864236B1148C8
:101BD000D864236B1D6520681346021D206B00F03E
:101BE00007FF23686FF040021A6084F838502268BB
:101BF000536943F080035361284600E0022038BD5A
:101C00000120FCE70120FAE70220F8E7C11C0008E8
:101C10000D1D0008011E000830B583B0044690F881
:101C20003A00C0B220283CD100293DD0002A3DD046
:101C300094F83830012B3BD0012384F83830A1626E
:101C4000A2850025E563222384F83A30636B1948A6
:101C5000D863636B18481864636B1848D864636B67
:101C60001D65206813460A46011D606B00F0C0FE2A
:101C7000019523681A6801925A680192019A84F8C2
:101C80003850DA6842F48072DA602268536943F0AF
:101C9000010353612268536943F0400353612846AE
:101CA00000E0022003B030BD0120FBE70120F9E78E
:101CB0000220F7E7171D0008F51D0008011E0008A7
:101CC00008B50346806B1B681B6813F4807F0CD13A
:101CD0000023C3840268536923F0800353610268C0
:101CE000D36843F04003D36008BD02F065FFFBE713
:101CF00008B50168CA6822F04002CA60202280F854
:101D0000392002F059FF002008BD704708B5806BEC
:101D1000FFF7FBFF08BD08B50346806B1B681B6817
:101D200013F4807F13D10023C3850268D36823F4A2
:101D30008073D3600268536923F001035361026822
:101D4000536923F040035361202380F83A3002F0B6
:101D50006DFF08BD08B590F83A30DBB2222B46D1B2
:101D60008368B3F5805F0FD003690BBB03685A68C3
:101D7000836A591C81621A70C38D9BB2013B9BB26E
:101D8000C385F3B1002008BD826A036943B90368C3
:101D90005B68C3F308031380836A02338362EBE753
:101DA00003685B68DBB21380836A01338362E3E715
:101DB00003685B68826A511C816203F07F031370C1
:101DC000DAE70268D36823F02003D3600268D3689F
:101DD00023F48073D3600268536923F001035361D5
:101DE000202380F83A3002F021FF0020CBE70220C8
:101DF000C9E7704708B5806BFFF7FBFF08BD704768
:101E000010B5846B23685A6994F83930DBB2212B02
:101E100010D023685A6902F0400294F83A30DBB2DD
:101E2000222B11D0E36B43F01003E3632046FFF74E
:101E3000E6FF10BD02F08002002AEAD00023E3840E
:101E40002046FFF73EFDE4E7002AEBD00023E385C0
:101E50002046FFF73FFDE5E710B50446026813682A
:101E6000D168526913F00F0005D113F0200F02D092
:101E700011F0200F13D128B112F0010213D111F487
:101E8000907F10D113F0800F02D011F0800F6CD131
:101E900013F0400F02D011F0400F6AD110BD204660
:101EA000FFF758FFFAE713F0010F06D011F4807F17
:101EB00003D0E06B40F00100E06313F0040F04D0A6
:101EC0001AB1E06B40F00200E06313F0020F04D09F
:101ED0001AB1E06B40F00400E06313F0080F07D084
:101EE00011F0200F00D11AB1E26B42F00802E26358
:101EF000E26B002AD2D013F0200F02D011F0200F95
:101F000021D123685B6903F04003E26B12F0080FF4
:101F100000D123B32046FFF7DDFC23685A6912F095
:101F2000400F18D05A6922F040025A61636B73B1B6
:101F3000124A1A65606B00F090FD0028AED0606B0D
:101F4000036D9847AAE72046FFF704FFD9E720462C
:101F5000FFF755FFA2E72046FFF751FF9EE7204617
:101F6000FFF74DFF0023E36398E72046FFF7C0FC2F
:101F700094E72046FFF7BCFE90E700BF811F0008F2
:101F800008B5806B0023C385C384FFF738FF08BD05
:101F9000002800F0DA8170B582B00446036813F0BF
:101FA000010F3BD09F4B9B6803F00C03042B2CD0FC
:101FB0009C4B9B6803F00C03082B21D06368B3F59E
:101FC000803F4FD0B3F5A02F52D0964B1A6822F421
:101FD00080321A601A6822F480221A606368002B2B
:101FE00050D000F0B9FE05468E4B1B6813F4003F3D
:101FF00014D100F0B1FE401B6428F5D90320ABE1F9
:10200000884B5B6813F4800FD8D0864B1B6813F4A1
:10201000003F03D06368002B00F09981236813F020
:10202000020F54D07F4B9B6813F00C0F3ED07D4BBA
:102030009B6803F00C03082B33D0E368002B68D0B7
:10204000794B01221A6000F087FE0546754B1B682C
:1020500013F0020F54D100F07FFE401B0228F5D987
:10206000032079E16F4A136843F480331360B5E7C6
:102070006C4B1A6842F480221A601A6842F480326B
:102080001A60ABE700F068FE0546664B1B6813F468
:10209000003FC3D000F060FE401B6428F5D9032048
:1020A0005AE1604B5B6813F4800FC6D15D4B1B682F
:1020B00013F0020F03D0E368012B40F04A81594A24
:1020C000136823F0F803216943EAC103136023680E
:1020D00013F0080F42D063696BB3534B0122C3F86E
:1020E000802E00F039FE05464E4B5B6F13F0020F59
:1020F00034D100F031FE401B0228F5D903202BE13A
:10210000484A136823F0F803216943EAC1031360C6
:10211000DDE7454B00221A6000F01EFE0546414BEC
:102120001B6813F0020FD2D000F016FE401B0228ED
:10213000F5D9032010E13C4B0022C3F8802E00F0BB
:102140000BFE0546374B5B6F13F0020F06D000F015
:1021500003FE401B0228F5D90320FDE0236813F09D
:10216000040F77D02F4B1B6C13F0805F33D100230B
:1021700001932C4B1A6C42F080521A641B6C03F0D2
:1021800080530193019B0125284B1B6813F4807F2A
:1021900023D0A368012B34D0052B38D0214B1A6FE4
:1021A00022F001021A671A6F22F004021A67A3686C
:1021B000002B3DD000F0D0FD06461A4B1B6F13F0EC
:1021C000020F46D100F0C8FD801B41F288339842CF
:1021D000F3D90320C0E00025D6E7144A136843F47E
:1021E0008073136000F0B8FD0646104B1B6813F4B3
:1021F000807FCED100F0B0FD801B0228F5D90320EE
:10220000AAE0084A136F43F001031367CFE7054BB9
:102210001A6F42F004021A671A6F42F001021A673D
:10222000C5E700BF00380240000047420070004090
:1022300000F092FD06464F4B1B6F13F0020F08D0C3
:1022400000F08AFD801B41F288339842F3D90320C5
:1022500082E0E5B9A369002B7DD0464A926802F07E
:102260000C02082A51D0022B17D0434B00221A66C9
:1022700000F072FD04463F4B1B6813F0007F42D014
:1022800000F06AFD001B0228F5D9032064E0394AFA
:10229000136C23F080531364DCE7374B00221A667B
:1022A00000F05AFD0546334B1B6813F0007F06D043
:1022B00000F052FD401B0228F5D903204CE0E369F1
:1022C000226A1343626A43EA8213A26A5208013AFD
:1022D00043EA0243E26A43EA0263264A5360264B1A
:1022E00001221A6600F038FD0446224B1B6813F0E9
:1022F000007F06D100F030FD001B0228F5D9032035
:102300002AE0002028E0002026E0012B26D0194BEF
:102310009B6803F48001E269914221D103F03F02FE
:10232000216A8A421ED1616A47F6C0721A408A4207
:102330001AD103F44032A16A8A4217D103F07063C4
:10234000E26A934214D1002006E001207047012088
:1023500002E0012000E0002002B070BD0120FBE798
:102360000120F9E70120F7E70120F5E70120F3E775
:102370000120F1E7003802400000474208B5314B28
:102380009B6803F00C03042B57D0082B57D12D4B1F
:102390005A6802F03F025B6813F4800F2AD0294B81
:1023A0005968C1F3881C4FEA4C11B1EB0C006EEB7D
:1023B0000E0E4FEA8E1343EA90638101091A63EB14
:1023C0000E03DB0043EA5173C90011EB0C0C43F11F
:1023D0000003590200234FEA4C2041EADC51FEF78A
:1023E00043FC184B5B68C3F3014301335B00B0FB54
:1023F000F3F025E0134B5968C1F3881C4FEA4C11E8
:10240000B1EB0C006EEB0E0E4FEA8E1343EA9063B5
:102410008101091A63EB0E03DB0043EA5173C90023
:1024200011EB0C0C43F10003990200234FEA8C20BE
:1024300041EA9C51FEF718FCD3E7034800E003484B
:1024400008BD00BF0038024000127A000024F400EA
:10245000002800F09B8070B50D4604464F4B1B686A
:1024600003F00F038B4208D2CBB24C4A13701368AF
:1024700003F00F038B4240F08B80236813F0020FB0
:1024800017D013F0040F04D0454A936843F4E05387
:102490009360236813F0080F04D0414A936843F413
:1024A000604393603E4A936823F0F003A1680B43B6
:1024B0009360236813F0010F32D06368012B21D0A1
:1024C0009A1E012A25D9364A126812F0020F61D0ED
:1024D00033498A6822F0030213438B6000F03CFC0E
:1024E00006462F4B9B6803F00C036268B3EB820F28
:1024F00016D000F031FC801B41F288339842F0D9AD
:10250000032042E0264A126812F4003FE0D1012085
:102510003BE0234A126812F0007FD9D1012034E059
:102520001E4B1B6803F00F03AB4207D9EAB21B4BEB
:102530001A701B6803F00F03AB422DD1236813F010
:10254000040F06D0164A936823F4E053E1680B4366
:102550009360236813F0080F07D0114A936823F49F
:102560006043216943EAC1039360FFF707FF0C4B07
:102570009B68C3F303130B4AD35CD8400A4B186023
:102580000A4B186800F0D4FD002070BD0120704790
:102590000120FAE70120F8E70120F6E7003C0240BD
:1025A00000380240A88000080C000020080000202D
:1025B000014B1868704700BF0C00002008B5FFF7FA
:1025C000F7FF044B9B68C3F38223034AD35CD840D4
:1025D00008BD00BF00380240B880000808B5FFF70A
:1025E000E7FF044B9B68C3F34233034AD35CD840F4
:1025F00008BD00BF00380240B88000080F23036008
:102600000B4B9A6802F0030242609A6802F0F002F3
:1026100082609A6802F4E052C2609B68DB0803F4AF
:10262000E0530361034B1B6803F00F030B6070471B
:1026300000380240003C024000230F2B00F2DA80F9
:10264000F0B583B03AE0072200E00022AA4032430E
:102650000234694D45F82420684A14686FEA0C0278
:1026600024EA0C054E6816F4803F01D04CEA0405BC
:10267000624C2560646802EA04054E6816F4003F67
:1026800001D04CEA04055D4C6560A46802EA0405CB
:102690004E6816F4801F01D04CEA0405574CA56023
:1026A000E46822404D6815F4001F01D04CEA040292
:1026B000524CE26001330F2B00F29A8001229A40C3
:1026C0000C6804EA020C32EA0404F3D14C68651E7B
:1026D000012D03D9112C01D0122C12D185685E0076
:1026E0000324B44025EA0405CC68B4402C4384603C
:1026F000456825EA02054C68C4F300129A402A4353
:102700004260C5684FEA430E032404FA0EF4E24324
:1027100025EA04058C6804FA0EF42C43C4604C6866
:10272000022C01D0122C0FD1DD08083550F825708D
:1027300003F00704A6000F24B44027EA04070C693D
:10274000B4403C4340F82540046814404A6802F015
:10275000030202FA0EF2224302604A6812F0805F1E
:10276000A8D000220192264A546C44F48044546458
:10277000526C02F480420192019A9C08A51C1E4AE8
:1027800052F8256003F0030295000F22AA4026EAC2
:1027900002061C4A90423FF458AF02F58062904214
:1027A0001AD002F58062904218D002F58062904201
:1027B00016D002F58062904214D002F580629042F9
:1027C00012D002F58062904210D002F580629042F1
:1027D0003FF439AF082239E7012237E7022235E713
:1027E000032233E7042231E705222FE706222DE7F3
:1027F00003B0F0BD704700BF00380140003C01400D
:1028000000380240000002400369194201D0012053
:102810007047002070470AB18161704709048161E7
:10282000704730B405682C6824F480242C60046858
:1028300063608368402B05D0036899600368DA60A1
:1028400030BC704703689A600368D960F8E70000FD
:1028500010B40368D9B210390C4AA2FB0142120924
:102860000B4CA25CC2655F2909D923F47F7323F066
:10287000030304338365806D5DF8044B704723F4D4
:102880007F7323F003038365F5E700BFABAAAAAA11
:10289000A0800008836A826992B9012B0AD0022BBA
:1028A00002D00BB100207047C36A13F0807F28D19B
:1028B00000207047C36AB3F1C07F24D00020704766
:1028C000B2F5005F09D0022B25D9032B25D1C36AAD
:1028D00013F0807F23D100207047032B03D8DFE85B
:1028E00003F01404140A00207047C36A13F0807FB9
:1028F0000DD100207047C36AB3F1C07F09D000201A
:102900007047012070470120704701207047012067
:102910007047012070470120704700207047012058
:102920007047000070B5044600F016FA002C5BD02A
:102930000546002384F83430022384F835302268B9
:10294000136823F00103136023681A6812F0010F63
:102950000AD000F001FA431B052BF5D9202363654B
:10296000032084F8350070BD1A6820481040616863
:10297000A2680A43E1680A4321690A4361690A437C
:10298000A1690A43E1690A43216A0A430243616A71
:1029900004291ED01A602668756925F00705636A48
:1029A0001D43042B07D1A36A1D43E36A1BB12046D4
:1029B000FFF770FF90B975612046FFF749FFE26DA0
:1029C0003F239340836000206065012384F8353005
:1029D000C9E7E16A206B01430A43DBE740236365F3
:1029E000012084F83500BEE70120BCE73F8010F0ED
:1029F00038B50446856D90F8340001282BD00120AD
:102A000084F8340094F83500C0B2012804D00023C3
:102A100084F83430022038BD022084F835000020CC
:102A200060652046FFF7FDFEE26D3F239340AB60FB
:102A30002268136843F016031360236C23B12268E5
:102A4000136843F0080313602268136843F001031E
:102A500013600020DFE70220DDE790F83530DBB2BD
:102A6000022B03D08023436501207047052380F8A3
:102A700035300268136823F00103136000207047AB
:102A8000F0B583B0044600230193724B1D68724B6E
:102A9000A3FB0535AD0A876D3E68C26D08239340E0
:102AA000334210D003681A6812F0040F0BD01A6872
:102AB00022F004021A60C26D08239340BB60436D8C
:102AC00043F001034365E26D01239340334209D093
:102AD0002268526912F0800F04D0BB60636D43F02E
:102AE00002036365E26D04239340334209D02268F8
:102AF000126812F0020F04D0BB60636D43F0040350
:102B00006365E26D10239340334224D0226812683B
:102B100012F0080F1FD0BB6023681A6812F4802FD0
:102B20000DD01B6813F4002F04D1236C9BB12046F9
:102B3000984710E0A36C73B1204698470BE01A68E1
:102B400012F4807F03D11A6822F008021A60236C05
:102B50000BB120469847E26D20239340334255D075
:102B60002268126812F0100F50D0BB6094F8353014
:102B7000DBB2052B0ED023681A6812F4802F33D0F5
:102B80001B6813F4002F2AD1636C002B3ED0204623
:102B900098473BE02268136823F01603136022680D
:102BA000536923F080035361236CA3B12268136837
:102BB00023F008031360E26D3F239340BB600023C2
:102BC00084F83430012384F83530236D002B3FD056
:102BD000204698473CE0A36C002BE7D1EBE7E36B82
:102BE000A3B12046984711E01A6812F4807F09D1FA
:102BF0001A6822F010021A60002384F8343001238E
:102C000084F83530E36B0BB120469847636DFBB118
:102C1000636D13F0010F17D0052384F83530226857
:102C2000136823F001031360019B01330193AB424E
:102C300004D823681B6813F0010FF5D1002384F832
:102C40003430012384F83530E36C0BB120469847CB
:102C500003B0F0BD0C000020B5814E1B074AD368BD
:102C600023F4E0631B041B0C000200F4E060034348
:102C700043F0BF6343F40033D360704700ED00E0DE
:102C800000B5194BDB68C3F30223C3F1070CBCF199
:102C9000040F28BF4FF0040C03F1040EBEF1060F21
:102CA00018D9033B4FF0FF3E0EFA0CFC21EA0C0151
:102CB00099400EFA03F322EA0303194300280BDBC1
:102CC0000901C9B200F1604000F5614080F80013CD
:102CD0005DF804FB0023E5E700F00F000901C9B22D
:102CE000024B1954F4E700BF00ED00E014ED00E0E2
:102CF000002807DB00F01F02400901239340024A2D
:102D000042F82030704700BF00E100E008B50B4BEF
:102D10001A6842F400721A601A6842F480621A60FB
:102D20001A6842F480721A600320FFF797FF0020B0
:102D300000F0FEF900F0DAF9002008BD003C024086
:102D4000034A1168034B1B780B441360704700BFA4
:102D50000002002004000020014B1868704700BFEB
:102D60000002002038B50446FFF7F6FF0546B4F12F
:102D7000FF3F02D0044B1B781C44FFF7EDFF401BC4
:102D8000A042FAD338BD00BF0400002043684B6066
:102D90009A688A6051609960086103680133036032
:102DA00070470369416882688A60416851605A6867
:102DB000824206D0002202611A68013A1A6018683D
:102DC000704782685A60F5E7084B1B681B6823B997
:102DD000074B4FF0FF321A607047044B1B68DB68EB
:102DE000DB685A68024B1A60704700BF0802002077
:102DF000A8020020F8B53A4B1B68002B64D1394B70
:102E00001D6801351D60C5B9374B1B681B6843B190
:102E10004FF0500383F31188BFF36F8FBFF34F8FD1
:102E2000FEE7314A1168314B186810601960304A6A
:102E3000136801331360FFF7C7FF2E4B1B68AB42CB
:102E400038D900272C4B1B68DB6A03EB83039A00FD
:102E50002A4B9B58012B3CD901273AE00127224BF2
:102E60001B681B6843B3204B1B68DB68DC68636826
:102E70009D4226D3261D3046FFF793FFA36A1BB160
:102E800004F11800FFF78DFFE36A01229A401C4904
:102E9000086802430A6003EB83039A00314617482F
:102EA0001044FFF773FFE26A134B1B68DB6A9A4218
:102EB000D4D2D4E70027D2E70E4B4FF0FF321A608E
:102EC000C0E70C4A1360BDE70E4A13680133136074
:102ED00000270D4B1B6803B101273846F8BD00BF22
:102EE000A0020020B0020020080200200C020020F6
:102EF000AC020020A80200200402002010020020E2
:102F0000A40200209C020020B4020020204B1B6879
:102F10001BB1204B01221A6070471E4B00221A6021
:102F20001D4B1B68B3FA83F3DBB2C3F11F0303EB42
:102F300083018A0019498A5842B94FF0500383F33C
:102F40001188BFF36F8FBFF34F8FFEE7134903EB79
:102F5000830082000A4450684068506003EB830C91
:102F60004FEA8C0208321144884209D003EB8303F4
:102F70009A000A4B13445B68DA68094B1A60704781
:102F8000406862469100054A0A445060EEE700BF7F
:102F9000A0020020B4020020A402002010020020A1
:102FA00004020020000000000000000000000000FB
:102FB000074B19680868B0E8F04F80F30988BFF341
:102FC0006F8F4FF0000080F311887047AFF30080DF
:102FD00004020020000000000000000000000000CB
:102FE000EFF30980BFF36F8F154B1A681EF0100FB7
:102FF00008BF20ED108A20E9F04F10602DE909008C
:103000004FF0500080F31188BFF34F8FBFF36F8FE5
:10301000FFF77CFF4FF0000080F3118809BC1968AE
:103020000868B0E8F04F1EF0100F08BFB0EC108A2F
:1030300080F30988BFF36F8F704700BFAFF3008044
:103040000402002008B54FF0500383F31188BFF34A
:103050006F8FBFF34F8FFFF7CDFE28B14FF0E02306
:103060004FF08052C3F8042D002383F3118808BD6C
:103070007047FEE7FEE7FEE7FEE7704708B5024847
:10308000FEF70EF908BD00BFB802002008B50248DF
:10309000FFF7F6FC08BD00BF0C06002008B502488B
:1030A000FFF7EEFC08BD00BF6C06002008B5024823
:1030B000FFF7E6FC08BD00BF8C04002008B50248FD
:1030C000FFF7DEFC08BD00BFEC04002008B5024895
:1030D000FEF7C2FE08BD00BFCC06002008B50248BE
:1030E000FEF7BAFE08BD00BF0C07002000B583B094
:1030F000002200920D4B596C41F480415964596C87
:1031000001F48041009100990192196C41F08051C5
:1031100019641B6C03F080530193019B0F216FF026
:103120000100FFF7ADFD03B05DF804FB003802407D
:1031300010B588B0014600223220FFF7A1FD3220F1
:10314000FFF7D6FD00240194144B1A6C42F00802DC
:103150001A641B6C03F008030193019B02A903A8E6
:10316000FFF74CFAFFF72AFA43000D48A0FB0323B0
:103170009B0C013B0B480C4A026040F2E732C260F4
:10318000436004618460FEF7ADF910B1012008B01E
:1031900010BD0448FEF76FF8F9E700BF00380240A1
:1031A00083DE1B43B8020020000C0040054BD3F81F
:1031B000882042F47002C3F888204FF000629A60C1
:1031C000704700BF00ED00E02DE9F0478CB000240F
:1031D0000794089409940A940B9401944E4B1A6B2B
:1031E00042F010021A631A6B02F010020192019A67
:1031F00002941A6B42F004021A631A6B02F0040282
:103200000292029A03941A6B42F080021A631A6BBC
:1032100002F080020392039A04941A6B42F00102B6
:103220001A631A6B02F001020492049A05941A6B55
:1032300042F002021A631A6B02F002020592059A2A
:1032400006941A6B42F008021A631B6B03F0080322
:103250000693069BDFF8CCA022464AF22A0150468C
:10326000FFF7D9FA2D4E224642F20E013046FFF703
:10327000D2FADFF8B490224640F204414846FFF704
:10328000CAFADFF8A88022464FF402614046FFF7F1
:10329000C2FA234F224605213846FFF7BCFA4AF20C
:1032A0002A0307930125089509950A9407A9504612
:1032B000FFF7C2F942F20E030793089509950A94A5
:1032C00007A93046FFF7B8F930230793089409940B
:1032D00007A93046FFF7B0F940F204430793089579
:1032E00009950A9407A94846FFF7A6F94FF4026327
:1032F0000793089509950A9407A94046FFF79CF99A
:1033000005230793089509950A9407A93846FFF7FE
:1033100093F90CB0BDE8F087003802400008024085
:10332000000C024000100240000002400004024075
:1033300008B50B480B4B03600B4B436000238360C5
:10334000C3604FF48042026143618361C3610362E1
:10335000FDF70CFE00B908BD00F0BAFEFBE700BFA8
:10336000F802002000540040A086010030B589B06A
:103370000023039304930593069307930268154B68
:103380009A4201D009B030BD00250195124C236B43
:1033900043F002032363236B03F002030193019BB9
:1033A0004FF44073039312230493012305930323E3
:1033B00006930423079303A90848FFF73DF90295F4
:1033C000236C43F400132364236C03F4001302936F
:1033D000029BD7E70054004000380240000402403E
:1033E00000B58DB02422002103A802F00FF90023BC
:1033F000019302931248134A0260436010228260D4
:103400004FF6FF72C260036143618361032303933C
:1034100001230593099303A9FEF798F850B90023F7
:103420000193029301A90648FEF7DAF928B90DB015
:103430005DF804FB00F04CFEF1E700F049FEF6E712
:103440004C0300200000014000B58DB02422002173
:1034500003A802F0DBF800230193029312484FF017
:10346000804202604360102282604FF6FF72C260A9
:10347000036183610323039301230593099303A944
:10348000FEF764F850B900230193029301A906489E
:10349000FEF7A6F928B90DB05DF804FB00F018FEA0
:1034A000F1E700F015FEF6E78C03002000B58DB0C3
:1034B0002422002103A802F0A9F80023019302931B
:1034C0001248134A02604360102282604FF6FF7276
:1034D000C26003618361032303930123059309936E
:1034E00003A9FEF733F850B900230193029301A911
:1034F0000648FEF775F928B90DB05DF804FB00F039
:10350000E7FDF1E700F0E4FDF6E700BFCC030020A3
:103510000004004000B58DB02422002103A802F071
:1035200075F80023019302931248134A0260436026
:10353000102282604FF6FF72C26003618361032331
:10354000039301230593099303A9FDF7FFFF50B9E6
:1035500000230193029301A90648FEF741F928B917
:103560000DB05DF804FB00F0B3FDF1E700F0B0FD35
:10357000F6E700BF0C0400200008004070B590B0D2
:1035800000230B930C930D930E930F930368664ADD
:1035900093420BD0B3F1804F40D0644A93426BD03A
:1035A000634A934200F09E8010B070BD00250195E3
:1035B000604B5A6C42F001025A645A6C02F00102EC
:1035C0000192019A02951A6B42F010021A631A6B6B
:1035D00002F010020292029A03951A6B42F0010265
:1035E0001A631B6B03F001030393039B4FF4006307
:1035F0000B9302260C9601240D940F940BA94E48B0
:10360000FFF71AF84FF480730B930C960D940E95F8
:103610000F940BA94948FFF70FF8C5E70021049163
:1036200003F50E331A6C42F001021A641A6C02F0B0
:1036300001020492049A05911A6B42F001021A6386
:103640001B6B03F001030593059B02250B950C955D
:1036500001240D940F94394E0BA93046FEF7ECFF70
:103660004FF400430B930C950D940E950F940BA9FA
:103670003046FEF7E1FF97E7002506952D4B1A6CC3
:1036800042F002021A641A6C02F002020692069AD2
:1036900007951A6B42F001021A631A6B02F00102DD
:1036A0000792079A08951A6B42F002021A631B6B85
:1036B00003F002030893089B80230B9302240C94CD
:1036C00001260D960F940BA91C48FEF7B5FF102399
:1036D0000B930C940D960E950F940BA91848FEF7BA
:1036E000ABFF61E700210991124B1A6C42F0040212
:1036F0001A641A6C02F004020992099A0A911A6B70
:1037000042F002021A631B6B03F002030A930A9B46
:10371000C0230B9302230C9301220D920F930BA94C
:103720000748FEF789FF3FE7000001400004004022
:103730000008004000380240001002400000024033
:10374000000402400268094B9A4200D0704782B0E0
:1037500000230193064B5A6C42F002025A645B6CE0
:1037600003F002030193019B02B070470004014083
:103770000038024000B587B0002301930293039301
:1037800004930593026803F1804303F582339A4260
:1037900002D007B05DF804FB002300930A4B1A6BBC
:1037A00042F004021A631B6B03F004030093009BB6
:1037B0004FF470730193022302930323059301A92D
:1037C0000248FEF739FFE4E70038024000080240F3
:1037D00030B593B000241094119409940A940B947A
:1037E0000C940D940E940F9420252A46214601A88E
:1037F00001F00CFF3048314B03604460856042F6B5
:103800000313C360046144618461FDF785FE0028F1
:103810003CD100231093119310A92748FDF7E0FF36
:10382000002836D16023099300220A920B920C9251
:103830000D920E920F9209A91F48FDF711FF58BB78
:10384000042209A91C48FDF70BFF40BB082209A967
:103850001948FDF705FF28BB0C2209A91648FDF7FA
:10386000FFFE10BB0023019302930393049305937F
:103870004FF400520692089301A90F48FDF7F6FF96
:10388000B0B90D48FFF776FF13B030BD00F020FC53
:10389000BFE700F01DFCC5E700F01AFCD0E700F020
:1038A00017FCD3E700F014FCD6E700F011FCD9E7D1
:1038B00000F00EFCE5E700BF4C04002000040140CE
:1038C00010B582B000240094224B1A6B42F400120F
:1038D0001A631A6B02F400120092009A01941A6B98
:1038E00042F480021A631B6B03F480030193019B73
:1038F000224621460D20FFF7C3F90D20FFF7F8F906
:10390000224621460F20FFF7BBF90F20FFF7F0F901
:10391000224621461020FFF7B3F91020FFF7E8F9FF
:10392000224621461120FFF7ABF91120FFF7E0F9FD
:10393000224621463A20FFF7A3F93A20FFF7D8F9AB
:10394000224621464620FFF79BF94620FFF7D0F993
:1039500002B010BD0038024008B50A480A4B0360A7
:103960004FF4E133436000238360C36003610C22A2
:1039700042618361C361FEF7D9F800B908BD00F068
:10398000A7FBFBE70C070020004C004008B50A48E5
:103990000A4B03604FF4E133436000238360C3604C
:1039A00003610C2242618361C361FEF7BFF800B975
:1039B00008BD00F08DFBFBE7CC0600200044004072
:1039C00030B58DB0044600230793089309930A93FA
:1039D0000B930368A04A934208D0A04A93426DD04B
:1039E0009F4A934200F0D1800DB030BD0025019573
:1039F0009C4B1A6C42F400221A641A6C02F40022E6
:103A00000192019A02951A6B42F004021A631B6B31
:103A100003F004030293029B4FF4406307930223D5
:103A200008930123099303230A9308230B9307A9FF
:103A30008D48FEF701FE8D488D4B03604FF000630B
:103A400043608560C5604FF48063036145618561B3
:103A50004FF48073C3614FF4003303624562FEF795
:103A600061FF28BB814B63639C638248824B036088
:103A70004FF000634360402383600023C3604FF432
:103A80008062026143618361C3614FF4003202626C
:103A90004362FEF747FF70B9764B23639C630022B5
:103AA00011463420FFF7ECF83420FFF721F99BE7AB
:103AB00000F00EFBD6E700F00BFBEDE700250395C9
:103AC000684B5A6C42F010025A645A6C02F01002B1
:103AD0000392039A04951A6B42F002021A631B6B5D
:103AE00003F002030493049BC0230793022308936B
:103AF00003230A9307230B9307A96048FEF79CFD55
:103B00005F48604B03604FF0006343608560C560B1
:103B10004FF480630361456185614FF48073C36135
:103B20004FF4003303624562FEF7FCFE38BB544B92
:103B300063639C635448554B03604FF000634360DC
:103B4000402383600023C3604FF4806202614361BD
:103B500083614FF48072C2614FF4003202624362AB
:103B6000FEF7E0FE70B9484B23639C6300221146C8
:103B70002520FFF785F82520FFF7BAF834E700F095
:103B8000A7FAD4E700F0A4FAEDE700250595354B38
:103B90001A6C42F400321A641A6C02F40032059274
:103BA000059A06951A6B42F008021A631B6B03F024
:103BB00008030693069B60230793022308930123BF
:103BC000099303230A9307230B9307A93048FEF7B1
:103BD00033FD3048304B03604FF000634360856035
:103BE000C5604FF480630361456185614FF4807364
:103BF000C3614FF4003303624562FEF793FE28BBB6
:103C0000244B63639C632548254B03604FF000639E
:103C10004360402383600023C3604FF480620261ED
:103C200043618361C3614FF4003202624362FEF775
:103C300079FE70B9194B23639C630022114626203C
:103C4000FFF71EF82620FFF753F8CDE600F040FA04
:103C5000D6E700F03DFAEDE7004C004000100140CF
:103C60000044004000380240000802408C0400205C
:103C700040600240EC0400207060024000040240FA
:103C80004C05002040640240AC050020B8640240AE
:103C9000000C02400C060020886002406C060020E8
:103CA000A0600240024600200AE000BF4FF06043DF
:103CB0001B68002BF9D04FF0604383F800C001303F
:103CC000884210DA12F800C04FF06043D3F8803E0B
:103CD00013F0010FF3D04FF06043D3F8003E13F020
:103CE000010FE3D1EBE7704708B508461146FFF72F
:103CF000D9FF08BDDFF834D0002103E00C4B5B583E
:103D0000435004310B480C4B42189A42F6D30B4AED
:103D100002E0002342F8043B094B9A42F9D3FFF733
:103D200045FA01F031FC00F02BFA70470000022048
:103D3000EC8A000800000020E4010020E4010020DB
:103D40000C120020FEE711B903685A63704704297A
:103D500004D0082905D003681A64704703689A6381
:103D600070470368DA63704710B5044661B10129F2
:103D700015D0002281880068FEF74DFD0022A18940
:103D8000A068FEF748FD10BD002281880068FEF79C
:103D900042FD0122A189A068FEF73DFDF3E7012263
:103DA00081880068FEF737FD0022A189A068FEF730
:103DB00032FDE8E738B505460C464B6823F07F43F3
:103DC00023F0FF03B3F5807F0DD0B3F5803F15D00E
:103DD00002210068FFF7C8FF2B682289596918691A
:103DE000FFF7B1FF38BD01210068FFF7BDFF2B6869
:103DF000228959691869FFF7A6FFF3E700210068D7
:103E0000FFF7B2FF2B68228959691869FFF79BFFFA
:103E1000E8E703790B7043794B7083798B700389E2
:103E2000CB7003891B0A0B71052070470B78037157
:103E30004B7843718B788371CB7803810A7943EA9D
:103E4000022303810520704700487047C0800008A6
:103E500000487047E080000870470000034B00E016
:103E6000103B034A9342FBD1704700BF4C0800202F
:103E70000C080020034B00E0083B034A9342FBD1AF
:103E8000704700BFFC070020DC070020012800D09D
:103E9000704738B54FF6FF73994200D038BD1820EF
:103EA00001F094FA1B4B18601B4D1C4C2A4621460E
:103EB000184601F010FA182001F088FA184B186023
:103EC0002A462146184601F006FA0321154B00291F
:103ED0000CDB154A5A60154A5A6000221A725A724F
:103EE0009A729A8143F8102B0139F0E70A4A104977
:103EF000002001F0F0F903230E4A002B04DB00211F
:103F000091800832013BF8E7034A0B49002001F099
:103F1000E2F9C3E7FC07002000000020593E00083A
:103F2000040800200C080020508100086881000867
:103F30005D3E0008DC070020753E000870B5274C88
:103F400027482061274E26600123A380264BA360CB
:103F50002022A28100256561A0622449A1614FF45D
:103F60008061A18301F1804101F500312162A284C9
:103F70000421E162206423630822A286A663A1874C
:103F80006264A0651A4AA2644FF40052A4F84C205F
:103F900023650223A4F854300C23E365FDF759F997
:103FA00061692069FDF7DAFBE16AA06AFDF7D6FBDB
:103FB000616C206CFDF7D2FBE16DA06DFDF7CEFBCF
:103FC0002B4608E003EB4302D100044A0A441901DE
:103FD000084842500133032BF4DD70BD4C0700202C
:103FE0004C040020000C024000100240000002407F
:103FF000000802400C08002010B50C4C0C48206052
:104000000C4BA3600C4B23610C4BA3613C21FDF7CF
:10401000C5FB3C21A068FDF7C1FB3C212069FDF7F1
:10402000BDFB3C21A069FDF7B9FB10BDDC070020FA
:104030004C0300208C030020CC0300200C04002043
:1040400010B40E4A782313750D4C1460202393800E
:104050000C4810610C49D1600C4B4FF0790C83F87F
:1040600014C01C6010249C801861D96008490A6043
:10407000084A13605DF8044B704700BFAC0700208E
:10408000000802400000484345D8F03CC407002027
:10409000FC0700200408002008B5FFF74FFFFFF7DA
:1040A000ABFFFFF7CDFF08BD08B54FF6FF7101204C
:1040B000FFF7ECFE08BD000008B50268034B9A420A
:1040C00000D008BDFEF73CFEFBE700BF000C00403F
:1040D00072B6FEE700B595B03022002108A801F0C5
:1040E00095FA002303930493059306930793019392
:1040F000214A116C41F080511164126C02F080521F
:104100000192019A02931D4B1A6842F480421A6090
:104110001B6803F480430293029B012308934FF42E
:104120008033099302230E934FF480020F920822EA
:1041300010924FF4A872119212930723139308A8B8
:10414000FDF726FF98B90F2303930223049300235E
:1041500005934FF4A05306934FF480530793052122
:1041600003A8FEF775F920B915B05DF804FBFFF759
:10417000AFFFFFF7ADFF00BF003802400070004006
:1041800008B5FEF7C3FDFFF7A5FFFFF71DF8FFF722
:1041900097FBFFF7CDF8FFF723F9FFF755F9FFF786
:1041A00085F9FFF7B7F9FFF713FBFFF7D5FBFFF72B
:1041B000EDFB00F047FD00F0CBFFFCE730B40C68EE
:1041C000630A074AA2FB0323DA09064D05FB1242E4
:1041D000046804EBD31303600A6030BC704700BF6F
:1041E000834B040000CA9A3B43680B7043681B0A68
:1041F0004B70C3888B70C379CB7083680B718368F5
:104200001B0A4B7143898B71C37ACB7108207047AD
:104210000B7843604A7843EA022343608A7843EA92
:1042200002434360CA7843EA026343600B798360C8
:104230004A7943EA022383608A7943EA024383602E
:10424000CA7943EA026383600820704700487047D8
:10425000788100080048704788810008004870474E
:10426000AC81000800487047C881000800487047CA
:10427000EC81000800487047008200080048704741
:10428000C8850008004870472482000810B504461D
:104290000022104616E004EB82035B680B544FEAE1
:1042A000132E00F1010C01F80CE04FEA134E00F15F
:1042B000020C01F80CE01B0E00F1030C01F80C30AD
:1042C00004300132032AE6D910BD10B5044600229D
:1042D000104618E00B5C00F1010C11F80CC043EA29
:1042E0000C2300F1020C11F80CC043EA0C4300F15E
:1042F000030C11F80CE004EB820C43EA0E63CCF8DB
:10430000043004300132032AE4D910BD004870475C
:1043100048820008004870475C82000884460022FA
:104320001046012A18D810B50CEB82035B680B54B9
:104330004FEA132E441C01F804E01C0C00F1020E9D
:1043400001F80E401B0E00F1030E01F80E30043090
:104350000132012AE8D910BD704784460022104678
:10436000012A16D810B50B5C441C0C5D43EA0423EB
:10437000841C0C5D43EA0443C41C0C5D0CEB820EF0
:1043800043EA0463CEF8043004300132012AEAD94A
:1043900010BD704700487047808200080048704791
:1043A00094820008012800D07047F8B504464FF603
:1043B000FF73994200D0F8BD4C4D4D4B2B604D4BD7
:1043C0002B604D4B6B600026C5F80862C5F80C6485
:1043D000C5F81064C5F81464C5F81864C5F81C6401
:1043E000C5F820644FF400773A46314605F2244080
:1043F00001F00CF93A46314605F2246001F006F965
:1044000064273A46314605F6240001F0FFF83A46A3
:10441000314605F6880001F0F9F8C5F8EC68C5F8F2
:10442000F068C5F8F468C5F8F868C5F8FC6885F860
:104430000069C5F80469C5F80869C5F80C6985F80C
:1044400010692E4BC5F814392D4AC5F81429C5F842
:104450001869C5F81C69C5F82069C5F8246905F60E
:10446000281200211160C5F82C69C5F83069C5F81B
:104470003469C5F83869234A1360234B42F8043B7A
:104480000323002B04DB002142F8041B013BF8E767
:104490001E4B1A4A1A601E4A43F8042B03E00022FE
:1044A00043F8042B013C002CF9DA1A4B1A4A1A6023
:1044B000144A5A6000221A61184B194919601349AD
:1044C00059601A61174B18491960184919600B494E
:1044D000D9601749D9601A745A749A749A82154A25
:1044E0009A610122DA61144A9A6064E77008002038
:1044F00048850008A4850008CC06002050810008EB
:1045000030850008500800207485000864080020E9
:104510008C850008AC110020B8820008C011002072
:10452000CC820008D41100205C850008B885000802
:10453000688100087D450008E082000808B50B7816
:1045400003744B7843748B788374CB7883820A79B5
:1045500043EA0223838283690C30984708BDC0690F
:104560007047000000487047C0800008004870474E
:10457000E080000890F800097047000000B585B0A1
:1045800003790C4A01920C4A01928DF80830427965
:104590008DF8092082798DF80A200289ADF80C2067
:1045A00001A9064800EB0310FFF704FC05B05DF815
:1045B00004FB00BF50810008688100080C0800203F
:1045C0002DE9F04385B004460D461046632904DD0D
:1045D00094F80039002B00F0AA8003681B6804F2ED
:1045E0002B619847FF2384F82436FE2384F8253670
:1045F000C3B284F82636C0F3072284F82726134472
:10460000DBB2DB4384F8283684F8295645F30725C6
:1046100084F82A5605230022811D994205DBE11802
:1046200091F824160A440133F6E7C31D5142D2B271
:10463000C9B258BF4A4200F10805D243234483F867
:104640002426B5F5007F5BDC261D04F22469A8460C
:10465000B5F5007FA8BF4FF40078D6F80804C0F580
:104660000077474528BF474600F502703A4649465D
:10467000304400F0BDFFD6F808344344C3F30803C8
:10468000C6F80834B84509D1636893F83930DBB20D
:10469000202B0CD0284605B0BDE8F083A8EB07021C
:1046A00009EB070106F5027000F0A2FFECE7214BD1
:1046B0001B78002BEED11F4B01221A70D6F808741C
:1046C000D6F80C148F4212D015D9BFB28BB2FF1A94
:1046D000BFB201F502713A4631446068FDF756FAFF
:1046E000D6F80C343B44C3F30803C6F80C34114B22
:1046F00000221A70CEE78FB2C7F50077BFB2E8E7A5
:104700000D4B01930D4B019300238DF808300C4B9A
:10471000039303238DF808300A4B039323681B6827
:1047200001AA0721204698474FF0FF35B2E7002540
:10473000B0E700BF4C080020508100081885000831
:1047400024830008EC8200082DE9F04106460D465E
:1047500083880B7083881B0A4B708068FBF742FDCF
:104760000446002305E0DA0024FA02F2991C6A5498
:104770000133032BF7D92246B168A81D00F038FF9A
:1047800004F10608F068FBF72DFD0746002306E05C
:10479000D90027FA01F108EB0302A9540133032BD6
:1047A000F6D90A343A46F168281900F021FF3C4452
:1047B0003069FBF717FD0746002305E0D90027FA0B
:1047C00001F1E218A9540133032BF7D904343A4616
:1047D0003169281900F00CFFE01973692B54190A8C
:1047E000421CA954190C821CA9541B0EC21CAB54A8
:1047F0000430BDE8F08170B506460D4603790B70B4
:104800008068FBF7EFFC0446002306E04FEAC30C88
:1048100024FA0CFC013305F803C0032BF6D9224619
:10482000B168681D00F0E4FE601D70BD2DE9F8431D
:1048300006460D4643680B7043681B0A4B70C388DD
:104840008B70C379CB7000220424736893420FD914
:10485000F36853F822302B55180A611C6854180C61
:10486000A11C68541B0EE11C6B5404340132ECE7AC
:1048700033692B5533691B0A621CAB54728AA31C23
:10488000EA54F27CE31CEA54043400223369934274
:104890000FD9B36953F822302B55180A611C68549C
:1048A000180CA11C68541B0EE11C6B54043401321B
:1048B000ECE7F3692B55F3691B0A621CAB54F28BCE
:1048C000A31CEA54F27FE31CEA5404344FF00008BE
:1048D00014E04FEAC30C27FA0CFCCA1805F802C012
:1048E0000133032BF5D90434736A3A4653F809109F
:1048F000281900F07DFE3C4408F10108F3694345A6
:104900000AD9736A4FEA880953F82800FBF76AFC52
:10491000074621460023E4E72046BDE8F883F8B5C2
:1049200005460C460E784B7846EA03268B7846EA15
:104930000346CB7846EA03664368B34219D36E60F8
:10494000002204266B68934219D9A35D711C615C37
:1049500043EA0123B11C615C43EA0143F11C615C41
:1049600043EA0163AB600436E96841F82230013262
:10497000E8E7B100C06801F061FBE860DFE7A75D30
:10498000731CE35C47EA0327B31CE35C47EA034775
:10499000F31CE35C47EA036704362B69BB4218D378
:1049A0002F6100222B69934219D9A35D711C615CB0
:1049B00043EA0123B11C615C43EA0143F11C615CE1
:1049C00043EA01636B610436A96941F82230013280
:1049D000E8E7B900A86901F031FBA861E0E7A75D4D
:1049E000731CE35C47EA0327B31CE35C47EA034715
:1049F000F31CE35C47EA03670436EB69BB4203D36D
:104A0000EF614FF0000E1DE0B900686A01F016FB7F
:104A10006862F5E70436334603E05A1EE05CA054B2
:104A2000013372189A42F8D8013A0023A3540CF1CA
:104A3000030C04EB0C032B620E446A6A42F82E301E
:104A40000EF1010EEB6973450BD9B446A71900218D
:104A50000B46032BDED8FA5CD800824011430133A9
:104A6000F7E73046F8BD10B50C4614F8013B03716A
:104A700000221346032B09D814F803C04FEAC30ED3
:104A80000CFA0EFC42EA0C020133F3E7052306E0C0
:104A900003F1FF3C11F803E001F80CE0013302F1EF
:104AA000050C9C45F4D8131D0024CC5404318160BE
:104AB000501D10BD30B50B7883804A7843EA02233D
:104AC000838001F1020C00221346032B06D81CF848
:104AD0000340DD00AC4022430133F6E7062305E046
:104AE0005C1E11F803C001F804C0013302F1060C8A
:104AF0009C45F5D8541D00230B554C1D846002F1D4
:104B0000060C8C449E46032B07D81CF80340DD009E
:104B1000AC404EEA040E0133F5E702F10A052B46DC
:104B200005E003F1FF3CCC5C01F80C40013305EBE0
:104B30000E0C9C45F5D80CF1FF3C002301F80C301D
:104B400009320A44C260754401EB050E1C46032B72
:104B500008D81EF803204FEAC30C02FA0CF21443E3
:104B60000133F4E705F1040C634605E05A1E11F821
:104B700003E001F802E001330CEB04029A42F5D89D
:104B8000013A00238B5403350D440561A44411F808
:104B90000C300CF101028A5C43EA02230CF10202A0
:104BA0008A5C43EA02430CF103028A5C43EA026333
:104BB00043610CF1040030BD38B51A4B5B6893F8C3
:104BC0003930DBB2202B00D038BD174B1B78002BBF
:104BD000FAD1154B01221A70124AD2F80C44D2F8BD
:104BE00010148C4214D017D9A4B28BB2E41AA4B218
:104BF0000C4D01F502712944224604316868FCF726
:104C0000C5FFD5F810342344C3F30803C5F81034A6
:104C1000054B00221A70D7E78CB2C4F50074A4B219
:104C2000E6E700BF700800204C08002008B5044BE0
:104C30004FF4007203F108015868FCF7EDFF08BD5E
:104C40007008002010B5FFF727FA274C4FF40072C8
:104C500004F108016068FCF7DFFF0023C4F8EC38BA
:104C6000C4F8F038C4F8F838C4F8F438182B12DC5B
:104C700003F502721C4901EB820252680AB101334A
:104C8000F4E7084603F5027100EB8101174A4A6018
:104C90007D339360D0600023182B12DC03F5027281
:104CA000114901EB820252680AB10133F4E7084668
:104CB00003F5027100EB81010D4A4A607D33936078
:104CC000D0600023182B0EDC03F22222064951F893
:104CD00022200AB10133F5E703F22220054A41F808
:104CE00020206433536010BD70080020AC110020F8
:104CF000C0110020D4110020F0B587B00446334B1A
:104D00000093334B00930025ADF80450314B0293D0
:104D100003930493059500E00135182D25DC05F576
:104D2000027304EB83035B68002BF5D09A68ADF83F
:104D300004201A680292586803689B689847039099
:104D400005F5027604EB8606736858680368DB682D
:104D5000984704904FF400730593716823681B68AB
:104D60006A46096920469847D6E7002500E00135E4
:104D7000182D25DC05F2222354F823000028F6D054
:104D80004368ADF804308368029303689B689847D2
:104D9000039005F2222654F826000368DB68984742
:104DA00004904FF40073059323681F6854F826009D
:104DB00003685B68984701466A462046B847D6E7CD
:104DC000012384F8003907B0F0BD00BF508100080E
:104DD00000850008248300082DE9F04385B00446CF
:104DE000051DFDF7B9FF0646D4F80839C31A42F687
:104DF000F822934202D9002384F80039D4F8EC3821
:104E0000DBB1D4F80C39B34217D20023C4F8EC3824
:104E100013E04FF0FF312FE0D4F8F8385A1CC4F8F3
:104E2000F828234483F82414D4F8F038013BC4F85C
:104E3000F03813B90823C4F8EC38D4F820343BB167
:104E4000FDF78AFF801BD4F82034984200F26C8171
:104E5000D5F804222B685B6B1B685B685B42C3F36D
:104E600008039A42D5D0531CC5F804322A4411795C
:104E7000C3F30803C5F804320029C0F23481D4F822
:104E8000FC280A44C4F8FC28D4F8EC38072BC3D01B
:104E9000B3B9FF2907D10133C4F8EC3806F1140384
:104EA000C4F80C39C9E7FDF757FF801B41F288337E
:104EB0009842C2D9002384F800396FF0010035E12F
:104EC000012B2ED0022B4BD0032B54D0042B5CD0C3
:104ED000052B69D0062B6FD0082BAED10023C4F868
:104EE000EC389B1AD2B2DBB258BF5A42FF2AA4D187
:104EF000D4F8F438002B71D00A2B00F08A80062BEE
:104F000000F0E3800B2B00F0EA8003F5DF7354F828
:104F10002300002891D003681B6804F224419847BD
:104F20008BE7FE2918D00023C4F8EC3894F8003938
:104F3000002B82D1804B0193804B0193002302937D
:104F4000039323681B6801AA0A2120469847FDF7AE
:104F500003FFC4F8140470E70133C4F8EC386CE7BD
:104F6000C4F8F0180022C4F8F8280133C4F8EC386B
:104F7000C4F8FC1861E7D4F8F02802EB0122C4F869
:104F8000F0280133C4F8EC3857E75142D2B2C9B225
:104F900058BF4A42FF2A03D00023C4F8EC384CE73C
:104FA0000133C4F8EC3848E7C4F8F4180133C4F806
:104FB000EC38C4F8FC1840E7D4F8F43803EB0123CC
:104FC000C4F8F4380723C4F8EC38D4F8F038002BD0
:104FD0007FF433AF0823C4F8EC382EE7564B019327
:104FE000564B019300230293039323681B6801AA85
:104FF0000A2120469847FDF7AFFEC4F81404204666
:10500000FFF77AFEC4F80469C4F808694FF0FF306E
:105010008CE004F22447484B0193484B0193002352
:1050200002930393FDF798FED4F81434C01A94F851
:105030002424029239467B7842EA03220292BB780A
:1050400042EA03420292FB7842EA036202923B790F
:1050500003937F7943EA072303938F7943EA074356
:105060000393C97943EA01630393354FA7FB00C15A
:105070004FEA911C02EB911202924FF47A7808FBEE
:105080001C00DFF8C49009FB00330393FDF764FEB6
:10509000A7FB0027B909029AA2EB9712013AC4F8BC
:1050A000182408FB1103039A09FB1322254B134410
:1050B000C4F81C3404F21C4104F58360FFF77EF849
:1050C000FDF74AFEC4F80809B7E604F2244104F6E5
:1050D0001410FFF724FC012384F81039ADE60023F7
:1050E00084F80039A9E694F8003913B3D4F80439E8
:1050F000F31A40F6C412934201D8002016E00E4B7A
:1051000001930E4B019300250295039523681B68BC
:1051100001AA0A2120469847FDF71EFEC4F8140490
:10512000C4F80469284601E06FF0010005B0BDE84D
:10513000F0830020FAE700BF50810008E8840008EF
:10514000D34D621000CA9A3B40420F00000000009D
:10515000F8B5002316E0544A52F833100868406A44
:1051600002EBC3029080096800204862B2F9042073
:1051700007EE902A4D4A02EB8302F8EEE77AC2ED81
:10518000017A0133032BE6DD494B1B6899881868C7
:10519000FDF73AFB002874D0454B1A689368013339
:1051A0009360434D2C6894ED037AD4ED027AF8EEC7
:1051B000E77A67EE877A77EEA77A17EE900AFBF721
:1051C000D3F937A3D3E90023FBF726FA06460F46A7
:1051D0002069FBF7C9F902460B4630463946FBF712
:1051E00045FBFBF7F1FC68600023A360314B58607E
:1051F000314B1B6899881868FDF706FB002846D0DC
:105200002D4B1A689368013393602B4D2C6894EDF5
:10521000037AD4ED027AF8EEE77A67EE877A77EED2
:10522000A77A17EE900AFBF79FF91DA3D3E9002395
:10523000FBF7F2F906460F462069FBF795F902469F
:105240000B4630463946FBF711FBFBF7BDFC6860A7
:105250000023A360174CA060184BD868026815683B
:10526000124A9968A847164BD86802681568224602
:105270009968A8471348FFF7AFFD0A20FDF772FDB4
:10528000F8BD0B4B1A689368013B936089E70A4BA2
:105290001A689368013B9360B7E700BFAFF30080E3
:1052A0004AD8124DFB210940DC070020500800209D
:1052B000FC0700206408002004080020AC11002036
:1052C000C01100207008002008B54FF6FF710120C2
:1052D000FFF768F808BD0B460146184600F046B9CE
:1052E0007FB500241023CDE90234036815469E697A
:1052F00012686B46CDE90044B0479DF8043003F0D6
:105300000603062B03BF009B2B600120204604B040
:1053100070BD0098904214BF012006207047000025
:1053200010B5034B0360044600F0E3F8204610BDBF
:105330001C86000810B50446FFF7F2FF204608213E
:1053400000F042F8204610BD2DE9F0411F46DDE98E
:105350000834DDF8188098450646154607D10799A8
:1053600000F0CAF818B165710020BDE8F081394637
:10537000304600F0C1F80028F6D00123C4F80080C0
:105380002571A371F0E738B515461C4600F0B4F856
:1053900020B10823E36006232560237138BD73B56F
:1053A00005460C4601921E4600F0A6F850B9032EA1
:1053B00008D82368019A5B692946204602B0BDE8F7
:1053C0007040184702B070BD00F0ACB8012838BF7B
:1053D000012010B50446204600F0FAF830B900F07C
:1053E000B5F808B900F0BAF88047F4E710BD08B581
:1053F00000F0A6F810B5034B03600446FFF790FFDA
:10540000204610BD7C86000810B50446FFF7F2FF69
:1054100020460C21FFF7D8FF204610BDF7B5089FA6
:10542000974205460E4614460AD0A86802680897B7
:10543000156A31462246AC4603B0BDE8F0406047ED
:105440001946019300F058F8019B0028EDD0062082
:1054500003B0F0BD2DE9F14F0D461946DDE90A4BC9
:10546000DDE90CA681461746984600F045F890B154
:10547000002D3460377109DB61198A450CBF0621A4
:105480000121B171002001B0BDE8F08F0235F9D1E2
:105490000123B371F6E7544506D15946484600F05A
:1054A0002BF808B17771EDE7D9F808000368CDE96A
:1054B0000CA6CDE90A4BDC693A4643462946A44688
:1054C00001B0BDE8F04F60472DE9F04107460C46BA
:1054D00015461E46FFF757FF48B9B86803689F692D
:1054E0002A4633462146BC46BDE8F0416047BDE848
:1054F000F081704700207047814208B50ED04068A7
:1055000003782A2B0CD049680B782A2B08BF01316D
:10551000FAF75EFEB0FA80F0400908BD0120FCE712
:105520000020FAE700F05CB808B5804700F016F8F4
:10553000024B1868BFF35B8F704700BF100000205C
:1055400008B5FFF7F5FFFFF7EFFF0000024B186803
:10555000BFF35B8F704700BFF411002008B5062031
:1055600000F0ACFD012002F08DFD000010B5054CEF
:1055700013462CB10A4601460220AFF3008010BD4D
:105580002046FCE70000000070B50D4D0D4C641B7B
:10559000A4100026A64209D10B4D0C4C02F074FD5C
:1055A000641BA4100026A64205D170BD55F8043B2B
:1055B00098470136EEE755F8043B98470136F2E785
:1055C000DC8A0008DC8A0008DC8A0008E88A000817
:1055D000024B0146186800F06DB800BF14000020AF
:1055E000024B0146186800F019B800BF14000020F3
:1055F0000A44914200F1FF3300D1704710B511F811
:10560000014B03F8014F9142F9D110BD024403460A
:10561000934200D1704703F8011BF9E737B5002921
:1056200044D051F8043C0190002BA1F10404B8BF10
:10563000E41801F0DFFB1E4A0198136833B9636078
:10564000146003B0BDE8304001F0DABBA34208D9D2
:10565000256861198B4201BF19685B68491921608F
:10566000EDE71A465B680BB1A342FAD911685518E9
:10567000A5420BD1246821445418A3421160E0D103
:105680001C685B68536021441160DAE702D90C237F
:105690000360D6E7256861198B4204BF19685B680F
:1056A000636004BF491921605460CAE703B030BD8C
:1056B000F8110020F8B5CD1C25F0030508350C2D98
:1056C00038BF0C25002D064601DBA94203D90C2367
:1056D00033600020F8BD01F08DFB21490A681446B3
:1056E0009CB9204F3B6823B92146304600F0AEFC00
:1056F00038602946304600F0A9FC431C23D10C2316
:105700003360304601F07CFBE3E723685B1B17D472
:105710000B2B03D923601C44256004E06368A2427C
:105720000CBF0B605360304601F06AFB04F10B00C4
:10573000231D20F00700C21ACCD01B1AA350C9E7C2
:1057400022466468CCE7C41C24F00304A042E3D0E2
:10575000211A304600F07AFC0130DDD1CFE700BFDE
:10576000F8110020FC1100202DE9FF4755EC104BEB
:10577000002D0E4619462B46BBBF05F100431D46C2
:1057800000232D230B700D9BDDF830A0914623F0F4
:105790002008BCBF22461446B8F1460F05D0B8F128
:1057A000450F00D10136022100E0032103AB019334
:1057B00002AB009345EC104B5346324600F028FDF7
:1057C000B8F1470F074602D119F0010F22D0B8F106
:1057D000460F07EB060910D13B78302B0AD1002287
:1057E000002320462946FBF77FF918B9C6F10106C8
:1057F000CAF80060DAF800309944002200232046FD
:105800002946FBF771F908B1CDF80C903022039BC3
:105810004B4507D3039B0E9ADB1B3846136004B03D
:10582000BDE8F087591C03911A70F0E7F7B50346FD
:105830000029B8BF494203F8022BB4BF2D222B2206
:10584000092942702ADD0DF10704A4460A27A6465D
:105850000A4691FBF7F607FB16153035632A04F16B
:10586000FF340EF8015C3146F1DC3031AEF1020557
:1058700004F8011C441C294661450AD30DF10902B4
:10588000A2EB0E02654588BF00221344181A03B02C
:10589000F0BD11F8012B04F8012FEDE73023303172
:1058A0008370C170031DF1E72DE9F04F2DED028BE0
:1058B0008DB00C46DDF8608016461F46054601F0A7
:1058C00095FAD0F800A05046FAF78CFC00230A9312
:1058D00023680593D8F8003094F818B0073323F004
:1058E000070303F10802C8F80020D3E90023C4E944
:1058F0001223D4E9128929F000430793CDF81880C8
:1059000008EE100A9F4BDDE906014FF0FF32FBF76E
:105910001DF988BBDDE906019A4B4FF0FF32FBF71A
:10592000F7F848BB0022002340464946FBF7E6F85B
:1059300010B12D2384F84330934B9448BBF1470FAB
:1059400094BF9846804603232361059B23F00402FD
:1059500022604FF00009009733460BAA21462846E3
:1059600000F0D8F9013040F090804FF0FF300DB0DA
:10597000BDEC028BBDE8F08F42464B46404649469F
:10598000FBF7E4F840B14B46002BBCBF2D2384F855
:1059900043307F487F4BD1E763680BF0DF0206920C
:1059A0005A1C3FD106236360059B616843F4806203
:1059B000002303930AABCDE901B309AB49EC108B8B
:1059C000009322600DF123032846FFF7CDFE069BCE
:1059D0000999472B804608D1C81C02DB63689942AD
:1059E00041DDABF1020B5FFA8BFBBBF1650F20D8F9
:1059F00001395A4604F150000991FFF717FF0A9A3E
:105A00001318012A8146236102DC2268D20701D5DE
:105A1000013323619DF82330002B9CD02D2384F883
:105A2000433098E7069A472ABED1002BBCD1012308
:105A3000B9E7BBF1660F18D1002963680BDD21615E
:105A400013B92268D00702D501330B442361A16545
:105A50004FF00009DEE713B92268D20701D50233FF
:105A6000F4E70123F2E74FF0670B0A9B994205DB4D
:105A700023682161D807EAD54B1CE7E70029D4BF8A
:105A8000C1F1020201221344E0E723685A0507D45A
:105A90002369424631462846B84701302CD164E795
:105AA000BBF1650F40F2E080D4E91201002200232F
:105AB000FBF71AF8002834D0374A0123314628462C
:105AC000B84701303FF451AFDDE909239A4202DBC8
:105AD0002368D80710D518EE103A524631462846AA
